{
  "_format": "hh-sol-artifact-1",
  "contractName": "AddressNFT",
  "sourceName": "contracts/NFTContract.sol",
  "abi": [
    {
      "inputs": [],
      "stateMutability": "nonpayable",
      "type": "constructor"
    },
    {
      "anonymous": false,
      "inputs": [
        {
          "indexed": true,
          "internalType": "address",
          "name": "owner",
          "type": "address"
        },
        {
          "indexed": true,
          "internalType": "address",
          "name": "approved",
          "type": "address"
        },
        {
          "indexed": true,
          "internalType": "uint256",
          "name": "tokenId",
          "type": "uint256"
        }
      ],
      "name": "Approval",
      "type": "event"
    },
    {
      "anonymous": false,
      "inputs": [
        {
          "indexed": true,
          "internalType": "address",
          "name": "owner",
          "type": "address"
        },
        {
          "indexed": true,
          "internalType": "address",
          "name": "operator",
          "type": "address"
        },
        {
          "indexed": false,
          "internalType": "bool",
          "name": "approved",
          "type": "bool"
        }
      ],
      "name": "ApprovalForAll",
      "type": "event"
    },
    {
      "anonymous": false,
      "inputs": [
        {
          "indexed": true,
          "internalType": "address",
          "name": "from",
          "type": "address"
        },
        {
          "indexed": true,
          "internalType": "address",
          "name": "to",
          "type": "address"
        },
        {
          "indexed": true,
          "internalType": "uint256",
          "name": "tokenId",
          "type": "uint256"
        }
      ],
      "name": "Transfer",
      "type": "event"
    },
    {
      "inputs": [
        {
          "internalType": "address",
          "name": "to",
          "type": "address"
        },
        {
          "internalType": "uint256",
          "name": "tokenId",
          "type": "uint256"
        }
      ],
      "name": "approve",
      "outputs": [],
      "stateMutability": "nonpayable",
      "type": "function"
    },
    {
      "inputs": [
        {
          "internalType": "address",
          "name": "owner",
          "type": "address"
        }
      ],
      "name": "balanceOf",
      "outputs": [
        {
          "internalType": "uint256",
          "name": "",
          "type": "uint256"
        }
      ],
      "stateMutability": "view",
      "type": "function"
    },
    {
      "inputs": [
        {
          "internalType": "uint256",
          "name": "tokenId",
          "type": "uint256"
        }
      ],
      "name": "getAddressData",
      "outputs": [
        {
          "internalType": "string",
          "name": "",
          "type": "string"
        },
        {
          "internalType": "int256",
          "name": "",
          "type": "int256"
        },
        {
          "internalType": "int256",
          "name": "",
          "type": "int256"
        }
      ],
      "stateMutability": "view",
      "type": "function"
    },
    {
      "inputs": [
        {
          "internalType": "uint256",
          "name": "tokenId",
          "type": "uint256"
        }
      ],
      "name": "getApproved",
      "outputs": [
        {
          "internalType": "address",
          "name": "",
          "type": "address"
        }
      ],
      "stateMutability": "view",
      "type": "function"
    },
    {
      "inputs": [
        {
          "internalType": "address",
          "name": "owner",
          "type": "address"
        },
        {
          "internalType": "address",
          "name": "operator",
          "type": "address"
        }
      ],
      "name": "isApprovedForAll",
      "outputs": [
        {
          "internalType": "bool",
          "name": "",
          "type": "bool"
        }
      ],
      "stateMutability": "view",
      "type": "function"
    },
    {
      "inputs": [
        {
          "internalType": "address",
          "name": "recipient",
          "type": "address"
        },
        {
          "internalType": "string",
          "name": "addressText",
          "type": "string"
        },
        {
          "internalType": "int256",
          "name": "lat",
          "type": "int256"
        },
        {
          "internalType": "int256",
          "name": "lon",
          "type": "int256"
        }
      ],
      "name": "mintNFT",
      "outputs": [
        {
          "internalType": "uint256",
          "name": "",
          "type": "uint256"
        }
      ],
      "stateMutability": "nonpayable",
      "type": "function"
    },
    {
      "inputs": [],
      "name": "name",
      "outputs": [
        {
          "internalType": "string",
          "name": "",
          "type": "string"
        }
      ],
      "stateMutability": "view",
      "type": "function"
    },
    {
      "inputs": [
        {
          "internalType": "uint256",
          "name": "tokenId",
          "type": "uint256"
        }
      ],
      "name": "ownerOf",
      "outputs": [
        {
          "internalType": "address",
          "name": "",
          "type": "address"
        }
      ],
      "stateMutability": "view",
      "type": "function"
    },
    {
      "inputs": [
        {
          "internalType": "address",
          "name": "from",
          "type": "address"
        },
        {
          "internalType": "address",
          "name": "to",
          "type": "address"
        },
        {
          "internalType": "uint256",
          "name": "tokenId",
          "type": "uint256"
        }
      ],
      "name": "safeTransferFrom",
      "outputs": [],
      "stateMutability": "nonpayable",
      "type": "function"
    },
    {
      "inputs": [
        {
          "internalType": "address",
          "name": "from",
          "type": "address"
        },
        {
          "internalType": "address",
          "name": "to",
          "type": "address"
        },
        {
          "internalType": "uint256",
          "name": "tokenId",
          "type": "uint256"
        },
        {
          "internalType": "bytes",
          "name": "data",
          "type": "bytes"
        }
      ],
      "name": "safeTransferFrom",
      "outputs": [],
      "stateMutability": "nonpayable",
      "type": "function"
    },
    {
      "inputs": [
        {
          "internalType": "address",
          "name": "operator",
          "type": "address"
        },
        {
          "internalType": "bool",
          "name": "approved",
          "type": "bool"
        }
      ],
      "name": "setApprovalForAll",
      "outputs": [],
      "stateMutability": "nonpayable",
      "type": "function"
    },
    {
      "inputs": [
        {
          "internalType": "bytes4",
          "name": "interfaceId",
          "type": "bytes4"
        }
      ],
      "name": "supportsInterface",
      "outputs": [
        {
          "internalType": "bool",
          "name": "",
          "type": "bool"
        }
      ],
      "stateMutability": "view",
      "type": "function"
    },
    {
      "inputs": [],
      "name": "symbol",
      "outputs": [
        {
          "internalType": "string",
          "name": "",
          "type": "string"
        }
      ],
      "stateMutability": "view",
      "type": "function"
    },
    {
      "inputs": [
        {
          "internalType": "uint256",
          "name": "tokenId",
          "type": "uint256"
        }
      ],
      "name": "tokenURI",
      "outputs": [
        {
          "internalType": "string",
          "name": "",
          "type": "string"
        }
      ],
      "stateMutability": "view",
      "type": "function"
    },
    {
      "inputs": [
        {
          "internalType": "address",
          "name": "from",
          "type": "address"
        },
        {
          "internalType": "address",
          "name": "to",
          "type": "address"
        },
        {
          "internalType": "uint256",
          "name": "tokenId",
          "type": "uint256"
        }
      ],
      "name": "transferFrom",
      "outputs": [],
      "stateMutability": "nonpayable",
      "type": "function"
    }
  ],
  "bytecode": "0x60806040523480156200001157600080fd5b506040518060400160405280600a81526020017f416464726573734e4654000000000000000000000000000000000000000000008152506040518060400160405280600481526020017f414e46540000000000000000000000000000000000000000000000000000000081525081600090816200008f919062000324565b508060019081620000a1919062000324565b5050506200040b565b600081519050919050565b7f4e487b7100000000000000000000000000000000000000000000000000000000600052604160045260246000fd5b7f4e487b7100000000000000000000000000000000000000000000000000000000600052602260045260246000fd5b600060028204905060018216806200012c57607f821691505b602082108103620001425762000141620000e4565b5b50919050565b60008190508160005260206000209050919050565b60006020601f8301049050919050565b600082821b905092915050565b600060088302620001ac7fffffffffffffffffffffffffffffffffffffffffffffffffffffffffffffffff826200016d565b620001b886836200016d565b95508019841693508086168417925050509392505050565b6000819050919050565b6000819050919050565b600062000205620001ff620001f984620001d0565b620001da565b620001d0565b9050919050565b6000819050919050565b6200022183620001e4565b6200023962000230826200020c565b8484546200017a565b825550505050565b600090565b6200025062000241565b6200025d81848462000216565b505050565b5b8181101562000285576200027960008262000246565b60018101905062000263565b5050565b601f821115620002d4576200029e8162000148565b620002a9846200015d565b81016020851015620002b9578190505b620002d1620002c8856200015d565b83018262000262565b50505b505050565b600082821c905092915050565b6000620002f960001984600802620002d9565b1980831691505092915050565b6000620003148383620002e6565b9150826002028217905092915050565b6200032f82620000aa565b67ffffffffffffffff8111156200034b576200034a620000b5565b5b62000357825462000113565b6200036482828562000289565b600060209050601f8311600181146200039c576000841562000387578287015190505b62000393858262000306565b86555062000403565b601f198416620003ac8662000148565b60005b82811015620003d657848901518255600182019150602085019450602081019050620003af565b86831015620003f65784890151620003f2601f891682620002e6565b8355505b6001600288020188555050505b505050505050565b612be4806200041b6000396000f3fe608060405234801561001057600080fd5b50600436106100f55760003560e01c806370a0823111610097578063b641151d11610066578063b641151d14610296578063b88d4fde146102c8578063c87b56dd146102e4578063e985e9c514610314576100f5565b806370a08231146101fc5780638229796a1461022c57806395d89b411461025c578063a22cb4651461027a576100f5565b8063095ea7b3116100d3578063095ea7b31461017857806323b872dd1461019457806342842e0e146101b05780636352211e146101cc576100f5565b806301ffc9a7146100fa57806306fdde031461012a578063081812fc14610148575b600080fd5b610114600480360381019061010f9190611a4f565b610344565b6040516101219190611a97565b60405180910390f35b610132610426565b60405161013f9190611b42565b60405180910390f35b610162600480360381019061015d9190611b9a565b6104b8565b60405161016f9190611c08565b60405180910390f35b610192600480360381019061018d9190611c4f565b6104fe565b005b6101ae60048036038101906101a99190611c8f565b610615565b005b6101ca60048036038101906101c59190611c8f565b610675565b005b6101e660048036038101906101e19190611b9a565b610695565b6040516101f39190611c08565b60405180910390f35b61021660048036038101906102119190611ce2565b61071b565b6040516102239190611d1e565b60405180910390f35b61024660048036038101906102419190611ea4565b6107d2565b6040516102539190611d1e565b60405180910390f35b6102646108b9565b6040516102719190611b42565b60405180910390f35b610294600480360381019061028f9190611f53565b61094b565b005b6102b060048036038101906102ab9190611b9a565b610961565b6040516102bf93929190611fa2565b60405180910390f35b6102e260048036038101906102dd9190612081565b610a93565b005b6102fe60048036038101906102f99190611b9a565b610af5565b60405161030b9190611b42565b60405180910390f35b61032e60048036038101906103299190612104565b610b5d565b60405161033b9190611a97565b60405180910390f35b60007f80ac58cd000000000000000000000000000000000000000000000000000000007bffffffffffffffffffffffffffffffffffffffffffffffffffffffff1916827bffffffffffffffffffffffffffffffffffffffffffffffffffffffff1916148061040f57507f5b5e139f000000000000000000000000000000000000000000000000000000007bffffffffffffffffffffffffffffffffffffffffffffffffffffffff1916827bffffffffffffffffffffffffffffffffffffffffffffffffffffffff1916145b8061041f575061041e82610bf1565b5b9050919050565b60606000805461043590612173565b80601f016020809104026020016040519081016040528092919081815260200182805461046190612173565b80156104ae5780601f10610483576101008083540402835291602001916104ae565b820191906000526020600020905b81548152906001019060200180831161049157829003601f168201915b5050505050905090565b60006104c382610c5b565b6004600083815260200190815260200160002060009054906101000a900473ffffffffffffffffffffffffffffffffffffffff169050919050565b600061050982610695565b90508073ffffffffffffffffffffffffffffffffffffffff168373ffffffffffffffffffffffffffffffffffffffff1603610579576040517f08c379a000000000000000000000000000000000000000000000000000000000815260040161057090612216565b60405180910390fd5b8073ffffffffffffffffffffffffffffffffffffffff16610598610ca6565b73ffffffffffffffffffffffffffffffffffffffff1614806105c757506105c6816105c1610ca6565b610b5d565b5b610606576040517f08c379a00000000000000000000000000000000000000000000000000000000081526004016105fd906122a8565b60405180910390fd5b6106108383610cae565b505050565b610626610620610ca6565b82610d67565b610665576040517f08c379a000000000000000000000000000000000000000000000000000000000815260040161065c9061233a565b60405180910390fd5b610670838383610dfc565b505050565b61069083838360405180602001604052806000815250610a93565b505050565b6000806106a1836110f5565b9050600073ffffffffffffffffffffffffffffffffffffffff168173ffffffffffffffffffffffffffffffffffffffff1603610712576040517f08c379a0000000000000000000000000000000000000000000000000000000008152600401610709906123a6565b60405180910390fd5b80915050919050565b60008073ffffffffffffffffffffffffffffffffffffffff168273ffffffffffffffffffffffffffffffffffffffff160361078b576040517f08c379a000000000000000000000000000000000000000000000000000000000815260040161078290612438565b60405180910390fd5b600360008373ffffffffffffffffffffffffffffffffffffffff1673ffffffffffffffffffffffffffffffffffffffff168152602001908152602001600020549050919050565b60006107de6006611132565b60006107ea6006611148565b90506107f68682611156565b6040518060600160405280868152602001858152602001848152506007600083815260200190815260200160002060008201518160000190816108399190612604565b506020820151816001015560408201518160020155905050808673ffffffffffffffffffffffffffffffffffffffff16600073ffffffffffffffffffffffffffffffffffffffff167fddf252ad1be2c89b69c2b068fc378daa952ba7f163c4a11628f55a4df523b3ef60405160405180910390a480915050949350505050565b6060600180546108c890612173565b80601f01602080910402602001604051908101604052809291908181526020018280546108f490612173565b80156109415780601f1061091657610100808354040283529160200191610941565b820191906000526020600020905b81548152906001019060200180831161092457829003601f168201915b5050505050905090565b61095d610956610ca6565b8383611174565b5050565b606060008061096f846112e0565b6109ae576040517f08c379a00000000000000000000000000000000000000000000000000000000081526004016109a590612722565b60405180910390fd5b6000600760008681526020019081526020016000206040518060600160405290816000820180546109de90612173565b80601f0160208091040260200160405190810160405280929190818152602001828054610a0a90612173565b8015610a575780601f10610a2c57610100808354040283529160200191610a57565b820191906000526020600020905b815481529060010190602001808311610a3a57829003601f168201915b50505050508152602001600182015481526020016002820154815250509050806000015181602001518260400151935093509350509193909250565b610aa4610a9e610ca6565b83610d67565b610ae3576040517f08c379a0000000000000000000000000000000000000000000000000000000008152600401610ada9061233a565b60405180910390fd5b610aef84848484611321565b50505050565b6060610b0082610c5b565b6000610b0a61137d565b90506000815111610b2a5760405180602001604052806000815250610b55565b80610b3484611394565b604051602001610b4592919061277e565b6040516020818303038152906040525b915050919050565b6000600560008473ffffffffffffffffffffffffffffffffffffffff1673ffffffffffffffffffffffffffffffffffffffff16815260200190815260200160002060008373ffffffffffffffffffffffffffffffffffffffff1673ffffffffffffffffffffffffffffffffffffffff16815260200190815260200160002060009054906101000a900460ff16905092915050565b60007f01ffc9a7000000000000000000000000000000000000000000000000000000007bffffffffffffffffffffffffffffffffffffffffffffffffffffffff1916827bffffffffffffffffffffffffffffffffffffffffffffffffffffffff1916149050919050565b610c64816112e0565b610ca3576040517f08c379a0000000000000000000000000000000000000000000000000000000008152600401610c9a906123a6565b60405180910390fd5b50565b600033905090565b816004600083815260200190815260200160002060006101000a81548173ffffffffffffffffffffffffffffffffffffffff021916908373ffffffffffffffffffffffffffffffffffffffff160217905550808273ffffffffffffffffffffffffffffffffffffffff16610d2183610695565b73ffffffffffffffffffffffffffffffffffffffff167f8c5be1e5ebec7d5bd14f71427d1e84f3dd0314c0f7b2291e5b200ac8c7c3b92560405160405180910390a45050565b600080610d7383610695565b90508073ffffffffffffffffffffffffffffffffffffffff168473ffffffffffffffffffffffffffffffffffffffff161480610db55750610db48185610b5d565b5b80610df357508373ffffffffffffffffffffffffffffffffffffffff16610ddb846104b8565b73ffffffffffffffffffffffffffffffffffffffff16145b91505092915050565b8273ffffffffffffffffffffffffffffffffffffffff16610e1c82610695565b73ffffffffffffffffffffffffffffffffffffffff1614610e72576040517f08c379a0000000000000000000000000000000000000000000000000000000008152600401610e6990612814565b60405180910390fd5b600073ffffffffffffffffffffffffffffffffffffffff168273ffffffffffffffffffffffffffffffffffffffff1603610ee1576040517f08c379a0000000000000000000000000000000000000000000000000000000008152600401610ed8906128a6565b60405180910390fd5b610eee8383836001611462565b8273ffffffffffffffffffffffffffffffffffffffff16610f0e82610695565b73ffffffffffffffffffffffffffffffffffffffff1614610f64576040517f08c379a0000000000000000000000000000000000000000000000000000000008152600401610f5b90612814565b60405180910390fd5b6004600082815260200190815260200160002060006101000a81549073ffffffffffffffffffffffffffffffffffffffff02191690556001600360008573ffffffffffffffffffffffffffffffffffffffff1673ffffffffffffffffffffffffffffffffffffffff168152602001908152602001600020600082825403925050819055506001600360008473ffffffffffffffffffffffffffffffffffffffff1673ffffffffffffffffffffffffffffffffffffffff16815260200190815260200160002060008282540192505081905550816002600083815260200190815260200160002060006101000a81548173ffffffffffffffffffffffffffffffffffffffff021916908373ffffffffffffffffffffffffffffffffffffffff160217905550808273ffffffffffffffffffffffffffffffffffffffff168473ffffffffffffffffffffffffffffffffffffffff167fddf252ad1be2c89b69c2b068fc378daa952ba7f163c4a11628f55a4df523b3ef60405160405180910390a46110f08383836001611468565b505050565b60006002600083815260200190815260200160002060009054906101000a900473ffffffffffffffffffffffffffffffffffffffff169050919050565b6001816000016000828254019250508190555050565b600081600001549050919050565b61117082826040518060200160405280600081525061146e565b5050565b8173ffffffffffffffffffffffffffffffffffffffff168373ffffffffffffffffffffffffffffffffffffffff16036111e2576040517f08c379a00000000000000000000000000000000000000000000000000000000081526004016111d990612912565b60405180910390fd5b80600560008573ffffffffffffffffffffffffffffffffffffffff1673ffffffffffffffffffffffffffffffffffffffff16815260200190815260200160002060008473ffffffffffffffffffffffffffffffffffffffff1673ffffffffffffffffffffffffffffffffffffffff16815260200190815260200160002060006101000a81548160ff0219169083151502179055508173ffffffffffffffffffffffffffffffffffffffff168373ffffffffffffffffffffffffffffffffffffffff167f17307eab39ab6107e8899845ad3d59bd9653f200f220920489ca2b5937696c31836040516112d39190611a97565b60405180910390a3505050565b60008073ffffffffffffffffffffffffffffffffffffffff16611302836110f5565b73ffffffffffffffffffffffffffffffffffffffff1614159050919050565b61132c848484610dfc565b611338848484846114c9565b611377576040517f08c379a000000000000000000000000000000000000000000000000000000000815260040161136e906129a4565b60405180910390fd5b50505050565b606060405180602001604052806000815250905090565b6060600060016113a384611650565b01905060008167ffffffffffffffff8111156113c2576113c1611d43565b5b6040519080825280601f01601f1916602001820160405280156113f45781602001600182028036833780820191505090505b509050600082602001820190505b600115611457578080600190039150507f3031323334353637383961626364656600000000000000000000000000000000600a86061a8153600a858161144b5761144a6129c4565b5b04945060008503611402575b819350505050919050565b50505050565b50505050565b61147883836117a3565b61148560008484846114c9565b6114c4576040517f08c379a00000000000000000000000000000000000000000000000000000000081526004016114bb906129a4565b60405180910390fd5b505050565b60006114ea8473ffffffffffffffffffffffffffffffffffffffff166119c0565b15611643578373ffffffffffffffffffffffffffffffffffffffff1663150b7a02611513610ca6565b8786866040518563ffffffff1660e01b81526004016115359493929190612a48565b6020604051808303816000875af192505050801561157157506040513d601f19601f8201168201806040525081019061156e9190612aa9565b60015b6115f3573d80600081146115a1576040519150601f19603f3d011682016040523d82523d6000602084013e6115a6565b606091505b5060008151036115eb576040517f08c379a00000000000000000000000000000000000000000000000000000000081526004016115e2906129a4565b60405180910390fd5b805181602001fd5b63150b7a0260e01b7bffffffffffffffffffffffffffffffffffffffffffffffffffffffff1916817bffffffffffffffffffffffffffffffffffffffffffffffffffffffff191614915050611648565b600190505b949350505050565b600080600090507a184f03e93ff9f4daa797ed6e38ed64bf6a1f01000000000000000083106116ae577a184f03e93ff9f4daa797ed6e38ed64bf6a1f01000000000000000083816116a4576116a36129c4565b5b0492506040810190505b6d04ee2d6d415b85acef810000000083106116eb576d04ee2d6d415b85acef810000000083816116e1576116e06129c4565b5b0492506020810190505b662386f26fc10000831061171a57662386f26fc1000083816117105761170f6129c4565b5b0492506010810190505b6305f5e1008310611743576305f5e1008381611739576117386129c4565b5b0492506008810190505b612710831061176857612710838161175e5761175d6129c4565b5b0492506004810190505b6064831061178b5760648381611781576117806129c4565b5b0492506002810190505b600a831061179a576001810190505b80915050919050565b600073ffffffffffffffffffffffffffffffffffffffff168273ffffffffffffffffffffffffffffffffffffffff1603611812576040517f08c379a000000000000000000000000000000000000000000000000000000000815260040161180990612b22565b60405180910390fd5b61181b816112e0565b1561185b576040517f08c379a000000000000000000000000000000000000000000000000000000000815260040161185290612b8e565b60405180910390fd5b611869600083836001611462565b611872816112e0565b156118b2576040517f08c379a00000000000000000000000000000000000000000000000000000000081526004016118a990612b8e565b60405180910390fd5b6001600360008473ffffffffffffffffffffffffffffffffffffffff1673ffffffffffffffffffffffffffffffffffffffff16815260200190815260200160002060008282540192505081905550816002600083815260200190815260200160002060006101000a81548173ffffffffffffffffffffffffffffffffffffffff021916908373ffffffffffffffffffffffffffffffffffffffff160217905550808273ffffffffffffffffffffffffffffffffffffffff16600073ffffffffffffffffffffffffffffffffffffffff167fddf252ad1be2c89b69c2b068fc378daa952ba7f163c4a11628f55a4df523b3ef60405160405180910390a46119bc600083836001611468565b5050565b6000808273ffffffffffffffffffffffffffffffffffffffff163b119050919050565b6000604051905090565b600080fd5b600080fd5b60007fffffffff0000000000000000000000000000000000000000000000000000000082169050919050565b611a2c816119f7565b8114611a3757600080fd5b50565b600081359050611a4981611a23565b92915050565b600060208284031215611a6557611a646119ed565b5b6000611a7384828501611a3a565b91505092915050565b60008115159050919050565b611a9181611a7c565b82525050565b6000602082019050611aac6000830184611a88565b92915050565b600081519050919050565b600082825260208201905092915050565b60005b83811015611aec578082015181840152602081019050611ad1565b60008484015250505050565b6000601f19601f8301169050919050565b6000611b1482611ab2565b611b1e8185611abd565b9350611b2e818560208601611ace565b611b3781611af8565b840191505092915050565b60006020820190508181036000830152611b5c8184611b09565b905092915050565b6000819050919050565b611b7781611b64565b8114611b8257600080fd5b50565b600081359050611b9481611b6e565b92915050565b600060208284031215611bb057611baf6119ed565b5b6000611bbe84828501611b85565b91505092915050565b600073ffffffffffffffffffffffffffffffffffffffff82169050919050565b6000611bf282611bc7565b9050919050565b611c0281611be7565b82525050565b6000602082019050611c1d6000830184611bf9565b92915050565b611c2c81611be7565b8114611c3757600080fd5b50565b600081359050611c4981611c23565b92915050565b60008060408385031215611c6657611c656119ed565b5b6000611c7485828601611c3a565b9250506020611c8585828601611b85565b9150509250929050565b600080600060608486031215611ca857611ca76119ed565b5b6000611cb686828701611c3a565b9350506020611cc786828701611c3a565b9250506040611cd886828701611b85565b9150509250925092565b600060208284031215611cf857611cf76119ed565b5b6000611d0684828501611c3a565b91505092915050565b611d1881611b64565b82525050565b6000602082019050611d336000830184611d0f565b92915050565b600080fd5b600080fd5b7f4e487b7100000000000000000000000000000000000000000000000000000000600052604160045260246000fd5b611d7b82611af8565b810181811067ffffffffffffffff82111715611d9a57611d99611d43565b5b80604052505050565b6000611dad6119e3565b9050611db98282611d72565b919050565b600067ffffffffffffffff821115611dd957611dd8611d43565b5b611de282611af8565b9050602081019050919050565b82818337600083830152505050565b6000611e11611e0c84611dbe565b611da3565b905082815260208101848484011115611e2d57611e2c611d3e565b5b611e38848285611def565b509392505050565b600082601f830112611e5557611e54611d39565b5b8135611e65848260208601611dfe565b91505092915050565b6000819050919050565b611e8181611e6e565b8114611e8c57600080fd5b50565b600081359050611e9e81611e78565b92915050565b60008060008060808587031215611ebe57611ebd6119ed565b5b6000611ecc87828801611c3a565b945050602085013567ffffffffffffffff811115611eed57611eec6119f2565b5b611ef987828801611e40565b9350506040611f0a87828801611e8f565b9250506060611f1b87828801611e8f565b91505092959194509250565b611f3081611a7c565b8114611f3b57600080fd5b50565b600081359050611f4d81611f27565b92915050565b60008060408385031215611f6a57611f696119ed565b5b6000611f7885828601611c3a565b9250506020611f8985828601611f3e565b9150509250929050565b611f9c81611e6e565b82525050565b60006060820190508181036000830152611fbc8186611b09565b9050611fcb6020830185611f93565b611fd86040830184611f93565b949350505050565b600067ffffffffffffffff821115611ffb57611ffa611d43565b5b61200482611af8565b9050602081019050919050565b600061202461201f84611fe0565b611da3565b9050828152602081018484840111156120405761203f611d3e565b5b61204b848285611def565b509392505050565b600082601f83011261206857612067611d39565b5b8135612078848260208601612011565b91505092915050565b6000806000806080858703121561209b5761209a6119ed565b5b60006120a987828801611c3a565b94505060206120ba87828801611c3a565b93505060406120cb87828801611b85565b925050606085013567ffffffffffffffff8111156120ec576120eb6119f2565b5b6120f887828801612053565b91505092959194509250565b6000806040838503121561211b5761211a6119ed565b5b600061212985828601611c3a565b925050602061213a85828601611c3a565b9150509250929050565b7f4e487b7100000000000000000000000000000000000000000000000000000000600052602260045260246000fd5b6000600282049050600182168061218b57607f821691505b60208210810361219e5761219d612144565b5b50919050565b7f4552433732313a20617070726f76616c20746f2063757272656e74206f776e6560008201527f7200000000000000000000000000000000000000000000000000000000000000602082015250565b6000612200602183611abd565b915061220b826121a4565b604082019050919050565b6000602082019050818103600083015261222f816121f3565b9050919050565b7f4552433732313a20617070726f76652063616c6c6572206973206e6f7420746f60008201527f6b656e206f776e6572206f7220617070726f76656420666f7220616c6c000000602082015250565b6000612292603d83611abd565b915061229d82612236565b604082019050919050565b600060208201905081810360008301526122c181612285565b9050919050565b7f4552433732313a2063616c6c6572206973206e6f7420746f6b656e206f776e6560008201527f72206f7220617070726f76656400000000000000000000000000000000000000602082015250565b6000612324602d83611abd565b915061232f826122c8565b604082019050919050565b6000602082019050818103600083015261235381612317565b9050919050565b7f4552433732313a20696e76616c696420746f6b656e2049440000000000000000600082015250565b6000612390601883611abd565b915061239b8261235a565b602082019050919050565b600060208201905081810360008301526123bf81612383565b9050919050565b7f4552433732313a2061646472657373207a65726f206973206e6f74206120766160008201527f6c6964206f776e65720000000000000000000000000000000000000000000000602082015250565b6000612422602983611abd565b915061242d826123c6565b604082019050919050565b6000602082019050818103600083015261245181612415565b9050919050565b60008190508160005260206000209050919050565b60006020601f8301049050919050565b600082821b905092915050565b6000600883026124ba7fffffffffffffffffffffffffffffffffffffffffffffffffffffffffffffffff8261247d565b6124c4868361247d565b95508019841693508086168417925050509392505050565b6000819050919050565b60006125016124fc6124f784611b64565b6124dc565b611b64565b9050919050565b6000819050919050565b61251b836124e6565b61252f61252782612508565b84845461248a565b825550505050565b600090565b612544612537565b61254f818484612512565b505050565b5b818110156125735761256860008261253c565b600181019050612555565b5050565b601f8211156125b85761258981612458565b6125928461246d565b810160208510156125a1578190505b6125b56125ad8561246d565b830182612554565b50505b505050565b600082821c905092915050565b60006125db600019846008026125bd565b1980831691505092915050565b60006125f483836125ca565b9150826002028217905092915050565b61260d82611ab2565b67ffffffffffffffff81111561262657612625611d43565b5b6126308254612173565b61263b828285612577565b600060209050601f83116001811461266e576000841561265c578287015190505b61266685826125e8565b8655506126ce565b601f19841661267c86612458565b60005b828110156126a45784890151825560018201915060208501945060208101905061267f565b868310156126c157848901516126bd601f8916826125ca565b8355505b6001600288020188555050505b505050505050565b7f546f6b656e20646f6573206e6f74206578697374000000000000000000000000600082015250565b600061270c601483611abd565b9150612717826126d6565b602082019050919050565b6000602082019050818103600083015261273b816126ff565b9050919050565b600081905092915050565b600061275882611ab2565b6127628185612742565b9350612772818560208601611ace565b80840191505092915050565b600061278a828561274d565b9150612796828461274d565b91508190509392505050565b7f4552433732313a207472616e736665722066726f6d20696e636f72726563742060008201527f6f776e6572000000000000000000000000000000000000000000000000000000602082015250565b60006127fe602583611abd565b9150612809826127a2565b604082019050919050565b6000602082019050818103600083015261282d816127f1565b9050919050565b7f4552433732313a207472616e7366657220746f20746865207a65726f2061646460008201527f7265737300000000000000000000000000000000000000000000000000000000602082015250565b6000612890602483611abd565b915061289b82612834565b604082019050919050565b600060208201905081810360008301526128bf81612883565b9050919050565b7f4552433732313a20617070726f766520746f2063616c6c657200000000000000600082015250565b60006128fc601983611abd565b9150612907826128c6565b602082019050919050565b6000602082019050818103600083015261292b816128ef565b9050919050565b7f4552433732313a207472616e7366657220746f206e6f6e20455243373231526560008201527f63656976657220696d706c656d656e7465720000000000000000000000000000602082015250565b600061298e603283611abd565b915061299982612932565b604082019050919050565b600060208201905081810360008301526129bd81612981565b9050919050565b7f4e487b7100000000000000000000000000000000000000000000000000000000600052601260045260246000fd5b600081519050919050565b600082825260208201905092915050565b6000612a1a826129f3565b612a2481856129fe565b9350612a34818560208601611ace565b612a3d81611af8565b840191505092915050565b6000608082019050612a5d6000830187611bf9565b612a6a6020830186611bf9565b612a776040830185611d0f565b8181036060830152612a898184612a0f565b905095945050505050565b600081519050612aa381611a23565b92915050565b600060208284031215612abf57612abe6119ed565b5b6000612acd84828501612a94565b91505092915050565b7f4552433732313a206d696e7420746f20746865207a65726f2061646472657373600082015250565b6000612b0c602083611abd565b9150612b1782612ad6565b602082019050919050565b60006020820190508181036000830152612b3b81612aff565b9050919050565b7f4552433732313a20746f6b656e20616c7265616479206d696e74656400000000600082015250565b6000612b78601c83611abd565b9150612b8382612b42565b602082019050919050565b60006020820190508181036000830152612ba781612b6b565b905091905056fea264697066735822122037f50c2f9a05e788e52b27d53f6e28d39c13197f146640a5397c4af3cb938a2364736f6c63430008180033",
  "linkReferences": {},
  "deployedLinkReferences": {}
}